{
  "contractName": "Exchange",
  "abi": [
    {
      "inputs": [
        {
          "internalType": "address",
          "name": "_feeAccount",
          "type": "address"
        },
        {
          "internalType": "uint256",
          "name": "_feePercent",
          "type": "uint256"
        }
      ],
      "payable": false,
      "stateMutability": "nonpayable",
      "type": "constructor"
    },
    {
      "anonymous": false,
      "inputs": [
        {
          "indexed": false,
          "internalType": "uint256",
          "name": "id",
          "type": "uint256"
        },
        {
          "indexed": false,
          "internalType": "address",
          "name": "futuresContractCreator",
          "type": "address"
        },
        {
          "indexed": false,
          "internalType": "address",
          "name": "tokenGet",
          "type": "address"
        },
        {
          "indexed": false,
          "internalType": "uint256",
          "name": "amountGet",
          "type": "uint256"
        },
        {
          "indexed": false,
          "internalType": "address",
          "name": "tokenGive",
          "type": "address"
        },
        {
          "indexed": false,
          "internalType": "uint256",
          "name": "amountGive",
          "type": "uint256"
        },
        {
          "indexed": false,
          "internalType": "uint256",
          "name": "timeExpiration",
          "type": "uint256"
        },
        {
          "indexed": false,
          "internalType": "uint256",
          "name": "timeCreation",
          "type": "uint256"
        }
      ],
      "name": "CreateFuturesContract",
      "type": "event"
    },
    {
      "anonymous": false,
      "inputs": [
        {
          "indexed": false,
          "internalType": "address",
          "name": "token",
          "type": "address"
        },
        {
          "indexed": false,
          "internalType": "address",
          "name": "user",
          "type": "address"
        },
        {
          "indexed": false,
          "internalType": "uint256",
          "name": "amount",
          "type": "uint256"
        },
        {
          "indexed": false,
          "internalType": "uint256",
          "name": "balance",
          "type": "uint256"
        }
      ],
      "name": "Deposit",
      "type": "event"
    },
    {
      "anonymous": false,
      "inputs": [
        {
          "indexed": false,
          "internalType": "address",
          "name": "token",
          "type": "address"
        },
        {
          "indexed": false,
          "internalType": "address",
          "name": "user",
          "type": "address"
        },
        {
          "indexed": false,
          "internalType": "uint256",
          "name": "amount",
          "type": "uint256"
        },
        {
          "indexed": false,
          "internalType": "uint256",
          "name": "balance",
          "type": "uint256"
        }
      ],
      "name": "Withdraw",
      "type": "event"
    },
    {
      "payable": false,
      "stateMutability": "nonpayable",
      "type": "fallback"
    },
    {
      "constant": true,
      "inputs": [],
      "name": "feeAccount",
      "outputs": [
        {
          "internalType": "address",
          "name": "",
          "type": "address"
        }
      ],
      "payable": false,
      "stateMutability": "view",
      "type": "function"
    },
    {
      "constant": true,
      "inputs": [],
      "name": "feePercent",
      "outputs": [
        {
          "internalType": "uint256",
          "name": "",
          "type": "uint256"
        }
      ],
      "payable": false,
      "stateMutability": "view",
      "type": "function"
    },
    {
      "constant": true,
      "inputs": [
        {
          "internalType": "uint256",
          "name": "",
          "type": "uint256"
        }
      ],
      "name": "futureOrderCancelled",
      "outputs": [
        {
          "internalType": "bool",
          "name": "",
          "type": "bool"
        }
      ],
      "payable": false,
      "stateMutability": "view",
      "type": "function"
    },
    {
      "constant": true,
      "inputs": [
        {
          "internalType": "uint256",
          "name": "",
          "type": "uint256"
        }
      ],
      "name": "futures",
      "outputs": [
        {
          "internalType": "uint256",
          "name": "id",
          "type": "uint256"
        },
        {
          "internalType": "address",
          "name": "futuresContractCreator",
          "type": "address"
        },
        {
          "internalType": "address",
          "name": "tokenGet",
          "type": "address"
        },
        {
          "internalType": "uint256",
          "name": "amountGet",
          "type": "uint256"
        },
        {
          "internalType": "address",
          "name": "tokenGive",
          "type": "address"
        },
        {
          "internalType": "uint256",
          "name": "amountGive",
          "type": "uint256"
        },
        {
          "internalType": "uint256",
          "name": "timeExpiration",
          "type": "uint256"
        },
        {
          "internalType": "uint256",
          "name": "timeCreation",
          "type": "uint256"
        }
      ],
      "payable": false,
      "stateMutability": "view",
      "type": "function"
    },
    {
      "constant": true,
      "inputs": [],
      "name": "futuresCount",
      "outputs": [
        {
          "internalType": "uint256",
          "name": "",
          "type": "uint256"
        }
      ],
      "payable": false,
      "stateMutability": "view",
      "type": "function"
    },
    {
      "constant": true,
      "inputs": [
        {
          "internalType": "address",
          "name": "",
          "type": "address"
        },
        {
          "internalType": "address",
          "name": "",
          "type": "address"
        }
      ],
      "name": "tokens",
      "outputs": [
        {
          "internalType": "uint256",
          "name": "",
          "type": "uint256"
        }
      ],
      "payable": false,
      "stateMutability": "view",
      "type": "function"
    },
    {
      "constant": false,
      "inputs": [],
      "name": "depositChiliz",
      "outputs": [],
      "payable": true,
      "stateMutability": "payable",
      "type": "function"
    },
    {
      "constant": false,
      "inputs": [
        {
          "internalType": "uint256",
          "name": "_amount",
          "type": "uint256"
        }
      ],
      "name": "withdrawChiliz",
      "outputs": [],
      "payable": false,
      "stateMutability": "nonpayable",
      "type": "function"
    },
    {
      "constant": false,
      "inputs": [
        {
          "internalType": "address",
          "name": "_token",
          "type": "address"
        },
        {
          "internalType": "uint256",
          "name": "_amount",
          "type": "uint256"
        }
      ],
      "name": "depositToken",
      "outputs": [],
      "payable": false,
      "stateMutability": "nonpayable",
      "type": "function"
    },
    {
      "constant": false,
      "inputs": [
        {
          "internalType": "address",
          "name": "_token",
          "type": "address"
        },
        {
          "internalType": "uint256",
          "name": "_amount",
          "type": "uint256"
        }
      ],
      "name": "withdrawToken",
      "outputs": [],
      "payable": false,
      "stateMutability": "nonpayable",
      "type": "function"
    },
    {
      "constant": true,
      "inputs": [
        {
          "internalType": "address",
          "name": "_token",
          "type": "address"
        },
        {
          "internalType": "address",
          "name": "_user",
          "type": "address"
        }
      ],
      "name": "balanceOf",
      "outputs": [
        {
          "internalType": "uint256",
          "name": "",
          "type": "uint256"
        }
      ],
      "payable": false,
      "stateMutability": "view",
      "type": "function"
    },
    {
      "constant": false,
      "inputs": [
        {
          "internalType": "address",
          "name": "_tokenGet",
          "type": "address"
        },
        {
          "internalType": "uint256",
          "name": "_amountGet",
          "type": "uint256"
        },
        {
          "internalType": "address",
          "name": "_tokenGive",
          "type": "address"
        },
        {
          "internalType": "uint256",
          "name": "_amountGive",
          "type": "uint256"
        },
        {
          "internalType": "uint256",
          "name": "_expirationQuarter",
          "type": "uint256"
        }
      ],
      "name": "createFuturesContract",
      "outputs": [],
      "payable": false,
      "stateMutability": "nonpayable",
      "type": "function"
    }
  ],
  "bytecode": "0x608060405234801561001057600080fd5b506040516117333803806117338339818101604052604081101561003357600080fd5b810190808051906020019092919080519060200190929190505050816000806101000a81548173ffffffffffffffffffffffffffffffffffffffff021916908373ffffffffffffffffffffffffffffffffffffffff16021790555080600181905550505061168d806100a66000396000f3fe6080604052600436106100a75760003560e01c80637fd6f15c116100645780637fd6f15c146102e55780638a1a110d146103105780639e281a9814610414578063d49fa0bd1461046f578063f3fbf961146104c2578063f7888aec146104cc576100a7565b80630c3d9ccb146100b9578063338b5dea146100f457806344907bbc1461014f57806347252d21146101de578063508493bc1461020957806365e17c9d1461028e575b3480156100b357600080fd5b50600080fd5b3480156100c557600080fd5b506100f2600480360360208110156100dc57600080fd5b8101908080359060200190929190505050610551565b005b34801561010057600080fd5b5061014d6004803603604081101561011757600080fd5b81019080803573ffffffffffffffffffffffffffffffffffffffff16906020019092919080359060200190929190505050610857565b005b34801561015b57600080fd5b506101dc600480360360a081101561017257600080fd5b81019080803573ffffffffffffffffffffffffffffffffffffffff16906020019092919080359060200190929190803573ffffffffffffffffffffffffffffffffffffffff1690602001909291908035906020019092919080359060200190929190505050610bc6565b005b3480156101ea57600080fd5b506101f3610e7b565b6040518082815260200191505060405180910390f35b34801561021557600080fd5b506102786004803603604081101561022c57600080fd5b81019080803573ffffffffffffffffffffffffffffffffffffffff169060200190929190803573ffffffffffffffffffffffffffffffffffffffff169060200190929190505050610e81565b6040518082815260200191505060405180910390f35b34801561029a57600080fd5b506102a3610ea6565b604051808273ffffffffffffffffffffffffffffffffffffffff1673ffffffffffffffffffffffffffffffffffffffff16815260200191505060405180910390f35b3480156102f157600080fd5b506102fa610ecb565b6040518082815260200191505060405180910390f35b34801561031c57600080fd5b506103496004803603602081101561033357600080fd5b8101908080359060200190929190505050610ed1565b604051808981526020018873ffffffffffffffffffffffffffffffffffffffff1673ffffffffffffffffffffffffffffffffffffffff1681526020018773ffffffffffffffffffffffffffffffffffffffff1673ffffffffffffffffffffffffffffffffffffffff1681526020018681526020018573ffffffffffffffffffffffffffffffffffffffff1673ffffffffffffffffffffffffffffffffffffffff1681526020018481526020018381526020018281526020019850505050505050505060405180910390f35b34801561042057600080fd5b5061046d6004803603604081101561043757600080fd5b81019080803573ffffffffffffffffffffffffffffffffffffffff16906020019092919080359060200190929190505050610f79565b005b34801561047b57600080fd5b506104a86004803603602081101561049257600080fd5b810190808035906020019092919050505061133d565b604051808215151515815260200191505060405180910390f35b6104ca61135d565b005b3480156104d857600080fd5b5061053b600480360360408110156104ef57600080fd5b81019080803573ffffffffffffffffffffffffffffffffffffffff169060200190929190803573ffffffffffffffffffffffffffffffffffffffff169060200190929190505050611592565b6040518082815260200191505060405180910390f35b80600260008073ffffffffffffffffffffffffffffffffffffffff1673ffffffffffffffffffffffffffffffffffffffff16815260200190815260200160002060003373ffffffffffffffffffffffffffffffffffffffff1673ffffffffffffffffffffffffffffffffffffffff1681526020019081526020016000205410156105da57600080fd5b61066981600260008073ffffffffffffffffffffffffffffffffffffffff1673ffffffffffffffffffffffffffffffffffffffff16815260200190815260200160002060003373ffffffffffffffffffffffffffffffffffffffff1673ffffffffffffffffffffffffffffffffffffffff1681526020019081526020016000205461161990919063ffffffff16565b600260008073ffffffffffffffffffffffffffffffffffffffff1673ffffffffffffffffffffffffffffffffffffffff16815260200190815260200160002060003373ffffffffffffffffffffffffffffffffffffffff1673ffffffffffffffffffffffffffffffffffffffff168152602001908152602001600020819055503373ffffffffffffffffffffffffffffffffffffffff166108fc829081150290604051600060405180830381858888f1935050505015801561072f573d6000803e3d6000fd5b507ff341246adaac6f497bc2a656f546ab9e182111d630394f0c57c710a59a2cb56760003383600260008073ffffffffffffffffffffffffffffffffffffffff1673ffffffffffffffffffffffffffffffffffffffff16815260200190815260200160002060003373ffffffffffffffffffffffffffffffffffffffff1673ffffffffffffffffffffffffffffffffffffffff16815260200190815260200160002054604051808573ffffffffffffffffffffffffffffffffffffffff1673ffffffffffffffffffffffffffffffffffffffff1681526020018473ffffffffffffffffffffffffffffffffffffffff1673ffffffffffffffffffffffffffffffffffffffff16815260200183815260200182815260200194505050505060405180910390a150565b600073ffffffffffffffffffffffffffffffffffffffff168273ffffffffffffffffffffffffffffffffffffffff16141561089157600080fd5b8173ffffffffffffffffffffffffffffffffffffffff166323b872dd3330846040518463ffffffff1660e01b8152600401808473ffffffffffffffffffffffffffffffffffffffff1673ffffffffffffffffffffffffffffffffffffffff1681526020018373ffffffffffffffffffffffffffffffffffffffff1673ffffffffffffffffffffffffffffffffffffffff1681526020018281526020019350505050602060405180830381600087803b15801561094c57600080fd5b505af1158015610960573d6000803e3d6000fd5b505050506040513d602081101561097657600080fd5b810190808051906020019092919050505061099057600080fd5b610a1f81600260008573ffffffffffffffffffffffffffffffffffffffff1673ffffffffffffffffffffffffffffffffffffffff16815260200190815260200160002060003373ffffffffffffffffffffffffffffffffffffffff1673ffffffffffffffffffffffffffffffffffffffff1681526020019081526020016000205461163990919063ffffffff16565b600260008473ffffffffffffffffffffffffffffffffffffffff1673ffffffffffffffffffffffffffffffffffffffff16815260200190815260200160002060003373ffffffffffffffffffffffffffffffffffffffff1673ffffffffffffffffffffffffffffffffffffffff168152602001908152602001600020819055507fdcbc1c05240f31ff3ad067ef1ee35ce4997762752e3a095284754544f4c709d7823383600260008773ffffffffffffffffffffffffffffffffffffffff1673ffffffffffffffffffffffffffffffffffffffff16815260200190815260200160002060003373ffffffffffffffffffffffffffffffffffffffff1673ffffffffffffffffffffffffffffffffffffffff16815260200190815260200160002054604051808573ffffffffffffffffffffffffffffffffffffffff1673ffffffffffffffffffffffffffffffffffffffff1681526020018473ffffffffffffffffffffffffffffffffffffffff1673ffffffffffffffffffffffffffffffffffffffff16815260200183815260200182815260200194505050505060405180910390a15050565b610bdc600160035461163990919063ffffffff16565b60038190555060405180610100016040528060035481526020013373ffffffffffffffffffffffffffffffffffffffff1681526020018673ffffffffffffffffffffffffffffffffffffffff1681526020018581526020018473ffffffffffffffffffffffffffffffffffffffff168152602001838152602001828152602001428152506004600060035481526020019081526020016000206000820151816000015560208201518160010160006101000a81548173ffffffffffffffffffffffffffffffffffffffff021916908373ffffffffffffffffffffffffffffffffffffffff16021790555060408201518160020160006101000a81548173ffffffffffffffffffffffffffffffffffffffff021916908373ffffffffffffffffffffffffffffffffffffffff1602179055506060820151816003015560808201518160040160006101000a81548173ffffffffffffffffffffffffffffffffffffffff021916908373ffffffffffffffffffffffffffffffffffffffff16021790555060a0820151816005015560c0820151816006015560e082015181600701559050507fd65699eeddcb2e49bad0ac32425c7aab001304744c581686895a060f6f95942f60035433878787878742604051808981526020018873ffffffffffffffffffffffffffffffffffffffff1673ffffffffffffffffffffffffffffffffffffffff1681526020018773ffffffffffffffffffffffffffffffffffffffff1673ffffffffffffffffffffffffffffffffffffffff1681526020018681526020018573ffffffffffffffffffffffffffffffffffffffff1673ffffffffffffffffffffffffffffffffffffffff1681526020018481526020018381526020018281526020019850505050505050505060405180910390a15050505050565b60035481565b6002602052816000526040600020602052806000526040600020600091509150505481565b6000809054906101000a900473ffffffffffffffffffffffffffffffffffffffff1681565b60015481565b60046020528060005260406000206000915090508060000154908060010160009054906101000a900473ffffffffffffffffffffffffffffffffffffffff16908060020160009054906101000a900473ffffffffffffffffffffffffffffffffffffffff16908060030154908060040160009054906101000a900473ffffffffffffffffffffffffffffffffffffffff16908060050154908060060154908060070154905088565b600073ffffffffffffffffffffffffffffffffffffffff168273ffffffffffffffffffffffffffffffffffffffff161415610fb357600080fd5b80600260008473ffffffffffffffffffffffffffffffffffffffff1673ffffffffffffffffffffffffffffffffffffffff16815260200190815260200160002060003373ffffffffffffffffffffffffffffffffffffffff1673ffffffffffffffffffffffffffffffffffffffff16815260200190815260200160002054101561103c57600080fd5b6110cb81600260008573ffffffffffffffffffffffffffffffffffffffff1673ffffffffffffffffffffffffffffffffffffffff16815260200190815260200160002060003373ffffffffffffffffffffffffffffffffffffffff1673ffffffffffffffffffffffffffffffffffffffff1681526020019081526020016000205461161990919063ffffffff16565b600260008473ffffffffffffffffffffffffffffffffffffffff1673ffffffffffffffffffffffffffffffffffffffff16815260200190815260200160002060003373ffffffffffffffffffffffffffffffffffffffff1673ffffffffffffffffffffffffffffffffffffffff168152602001908152602001600020819055508173ffffffffffffffffffffffffffffffffffffffff1663095ea7b333836040518363ffffffff1660e01b8152600401808373ffffffffffffffffffffffffffffffffffffffff1673ffffffffffffffffffffffffffffffffffffffff16815260200182815260200192505050602060405180830381600087803b1580156111d257600080fd5b505af11580156111e6573d6000803e3d6000fd5b505050506040513d60208110156111fc57600080fd5b810190808051906020019092919050505061121657600080fd5b7ff341246adaac6f497bc2a656f546ab9e182111d630394f0c57c710a59a2cb567823383600260008773ffffffffffffffffffffffffffffffffffffffff1673ffffffffffffffffffffffffffffffffffffffff16815260200190815260200160002060003373ffffffffffffffffffffffffffffffffffffffff1673ffffffffffffffffffffffffffffffffffffffff16815260200190815260200160002054604051808573ffffffffffffffffffffffffffffffffffffffff1673ffffffffffffffffffffffffffffffffffffffff1681526020018473ffffffffffffffffffffffffffffffffffffffff1673ffffffffffffffffffffffffffffffffffffffff16815260200183815260200182815260200194505050505060405180910390a15050565b60056020528060005260406000206000915054906101000a900460ff1681565b6113ec34600260008073ffffffffffffffffffffffffffffffffffffffff1673ffffffffffffffffffffffffffffffffffffffff16815260200190815260200160002060003373ffffffffffffffffffffffffffffffffffffffff1673ffffffffffffffffffffffffffffffffffffffff1681526020019081526020016000205461163990919063ffffffff16565b600260008073ffffffffffffffffffffffffffffffffffffffff1673ffffffffffffffffffffffffffffffffffffffff16815260200190815260200160002060003373ffffffffffffffffffffffffffffffffffffffff1673ffffffffffffffffffffffffffffffffffffffff168152602001908152602001600020819055507fdcbc1c05240f31ff3ad067ef1ee35ce4997762752e3a095284754544f4c709d760003334600260008073ffffffffffffffffffffffffffffffffffffffff1673ffffffffffffffffffffffffffffffffffffffff16815260200190815260200160002060003373ffffffffffffffffffffffffffffffffffffffff1673ffffffffffffffffffffffffffffffffffffffff16815260200190815260200160002054604051808573ffffffffffffffffffffffffffffffffffffffff1673ffffffffffffffffffffffffffffffffffffffff1681526020018473ffffffffffffffffffffffffffffffffffffffff1673ffffffffffffffffffffffffffffffffffffffff16815260200183815260200182815260200194505050505060405180910390a1565b6000600260008473ffffffffffffffffffffffffffffffffffffffff1673ffffffffffffffffffffffffffffffffffffffff16815260200190815260200160002060008373ffffffffffffffffffffffffffffffffffffffff1673ffffffffffffffffffffffffffffffffffffffff16815260200190815260200160002054905092915050565b60008282111561162857600080fd5b600082840390508091505092915050565b60008082840190508381101561164e57600080fd5b809150509291505056fea265627a7a723158202560d2b80c60a487bf490c3601ba61888299494a34b54524591ede88ee5d9a5864736f6c63430005100032",
  "source": "// my friend was telling me about crypto coins issued by soccer clubs\n// trade with alot of volitility during games\n// would be great avenue to test out creating an options or futures market\n// it might bypass all of the legal bullshit that is involved in \"sports betting\"\n// because it is trading crypto coin which is way less regulated\n\n// MARKET SHARE GAME AT THIS POINT AKA AKA AKA SPEED IS SUPER IMPORTANT\n// MONETIZATION COMES AFTER\n\n// OPTION STRUCTURE\n// 1. UNDERLYING - what you have the right to buy or sell\n// 2. CALL/PUT - right to buy or right to sell\n// 3. STRIKE PRICE - price at which you're allowed to buy or sell\n// 4. EXPIRATION - how long you have that right for\n// 5. CONTRACT SIZE - how many of whatever you have the right to buy or sell\n// 6. SETTLEMENT/DELIVERY - I suppose all of these will be cash settled\n// 7. TRADE PRICE\n\n// recommends writing a similar structure for futures first and then layer on option code\n// since these options wouldnt be stock/commodity delivery they'd need a future component anyways \n// namely they'd be options on futures and hence cash settled\n// building the structure for futures is much more straightforward\n\n// FUTURE STRUCTURE\n// 1. UNDERLYING - whatever the club coin is \n// 2. EXPIRATION - when you can no longer execute the future contract aka the contract rights expire\n// 3. PRICE - in chiliz coin, set by the user who puts the future contract onto the exchange\n\n// just a guarantee that the buyer will buy x amount of y at z time\n// needs to be a way to verify settlement in the structure (this comes with blockchain I think)\n\n// exchange comes up with whatever contract on whatever underlying\n// exchange decides expirations, usually quarterly\n// then exchange members just buy and sell those to each other\n\n\n// start with future structure just like Kahn said, then I can expand that to an option\n\n\n// price is determined as an open market\n// whatever people want to buy and sell it at\n// where those prices cross, they trade\n// so each contract should have variable for best bid and best offer\n// so people can see where the current market is \n// if someone wants to trade either of those prices \n// it will trade and there will be counterparties\n\n// whoever sells the prop, lets say we do the settlement at 0 or 100\n// that means if the seller wants to offer it at 40 they stand to lose 60 if they lose the prop\n// so 60 should automatically go into escrow until the future settles\n// similarly, the buyer stands to lose 40 so 40 should go into escrow from their account\n// until the future settles\n// similarly the buyer stands to lose 40 so the 40 should go from their account into escrow\n// that makes a total of 100 then whoever wins the prop gets all 100\n\n// prop can be settled by block chian, say it needs to be verified by majority from at least 100 votes or something?\n// Not sure how it works on blockchain as opposed to a dedicated exchange (atomic transfers?? Josh)\n//////////////////////////////////////////////////////////////////////////////////////////////////////////////////////////////////////////////\n//////////////////////////////////////////////////////////////////////////////////////////////////////////////////////////////////////////////\n\n// declaring this is solidity contract and the version \npragma solidity ^0.5.0;\n\n// importing token contract\nimport \"./Token.sol\";\n// importing safe math contract\nimport \"openzeppelin-solidity/contracts/math/SafeMath.sol\";\n\ncontract Exchange {\n\t// dependency for doing match safely in solidity\n\tusing SafeMath for uint256;\n\n\t// fee account (i.e.) exchange deployer account\n\taddress public feeAccount;\n\t// fee charged by the account holder\n\tuint256 public feePercent;\n\n\t// assigning the ether address to CHZ const (Ether equivalent for Chiliz chain)\n\taddress constant CHZ = address(0);\t// CHZ address 0xc59181b702A7F3A8eCea27f30072B8dbCcC0c48a https://scoville-explorer.chiliz.com/address/0xc59181b702A7F3A8eCea27f30072B8dbCcC0c48a/transactions\n\t// AC Milan (testACM) address assigned to a variable\n\taddress constant testACM = 0x27c294288837D0B8be487Db282058C6c3087B74d;\n\t// Arsenal FC (testAFC) address assigned to a variable\n\taddress constant testAFC = 0x6c91CcF20E55B7e6A5D58Db65cAB607516951904;\n\t// Atletico de Madrid (testATM) address assigned to variable\n\taddress constant testATM = 0x911a6935C6D4271f6F4b3992cd47caC8EbEd4498;\n\t// FC Barcelona (testBAR) address assigned to a variable\n\taddress constant testBAR = 0x4e724A93c993a4Ed692016e35C5B175b1E92b045;\n\t// Manchester City FC (testCITY) address assigned to a variable\n\taddress constant testCITY = 0x9CCBe6aeaF87a5d181a897A72df67DeB1a34009D;\n\t// Galatasary S.K. (testGAL) address is assigned to a variable\n\taddress constant testGAL = 0xB9aD700dDA548f509afE049C6846C70B14968493;\n\t// Inter Milan (testINTER) address is assigned to a variable\n\taddress constant testINTER = 0x8A8ECD3eC11DB38A8683952eF0836fF1cFa85dB0;\n\t// Juventus (testJUV) address is assigned to a variable\n\taddress constant testJUV = 0xF07E2a2f21E47b3359284b253017D666faE1Daea;\n\t// Flamengo (testMENGO) address is assigned to a variable\n\taddress constant testMENGO = 0x492F559cDE683bEBB0094Ef9D4544bF2360Dd71E;\n\t// Paris Saint-Germain (testPSG) address is assigned to a variable\n\taddress constant testPSG = 0xFcf885081F09BEa9DE6925bbDc41EB61303E6A41;\n\t// Socios United (testSSU) address is assigned to a variable\n\taddress constant testSSU = 0xE40beA7F708b563e4E70d529C164288144C01782;\n\t// Trabzonspor (testTRA) address is assigned to a variable\n\taddress constant testTRA = 0xe0b2d2c2363dAA6a4F4fD564025EdBFaD58704d3;\n\n\t// tokens mapping for different ERC20 tokens: token address is first key, second address is token owner, third key is amount of tokens\n\tmapping(address => mapping(address => uint256)) public tokens;\n\t// counter cache for futures id\n\tuint256 public futuresCount;\n\t// mapping for holding our futures on the exchangenvm \n\tmapping(uint256 => _futuresContract) public futures;\n\t// mapping to track cancelled future orders\n\tmapping(uint256 => bool) public futureOrderCancelled;\n\n\t// event emits when a deposit is made into the exchange tokens mapping\n\tevent Deposit(address token, address user, uint256 amount, uint256 balance);\n\t// event emits when a withdraw is made from the exchange tokens mapping\n\tevent Withdraw(address token, address user, uint256 amount, uint256 balance);\n\t// event emits when a futures contract is creates\n\tevent CreateFuturesContract(\n\t\t// unique identifier for the future order\n\t\tuint256 id,\n\t\t// address that creates the order\n\t\taddress futuresContractCreator,\n\t\t// address of UNDERLYING \n\t\taddress tokenGet,\n\t\t// amount of UNDERLYING\n\t\tuint256 amountGet,\n\t\t// address of the PRICE payment token (CHZ)\n\t\taddress tokenGive,\n\t\t// amount of the PRICE method\n\t\tuint256 amountGive,\n\t\t// future contract expiration time, should be quarterly\n\t\tuint256 timeExpiration,\n\t\t// timestamp for creation of future contract\n\t\tuint256 timeCreation\n\t);\n\n\t// futures orders data type structure\n\tstruct _futuresContract {\n\t\t// unique identifier for the future order\n\t\tuint256 id; \n\t\t// address that creates the order\n\t\taddress futuresContractCreator;\n\t\t// address of UNDERLYING \n\t\taddress tokenGet;\n\t\t// amount of UNDERLYING\n\t\tuint256 amountGet;\n\t\t// address of the PRICE payment token (CHZ)\n\t\taddress tokenGive;\n\t\t// amount of the PRICE method\n\t\tuint256 amountGive;\n\t\t// future contract expiration time, should be quarterly\n\t\tuint256 timeExpiration;\n\t\t// timestamp for creation of future contract\n\t\tuint256 timeCreation;\n\t}\n\n\t// constructor sets feeAccount and feePercent when the contract is deployed, this happens once in the contract lifecycle\n\tconstructor (address _feeAccount, uint256 _feePercent) public {\n\t\t// address where fees are sent is set\n\t\tfeeAccount = _feeAccount;\n\t\t// the fee percentage is set\n\t\tfeePercent = _feePercent;\n\t}\n\n\t// fallback function to send CHZ back if someone just sends to the contract address accidentally, otherwise would just be locked into the contract forever\n\tfunction() external {\n\t\trevert();\n\t}\n\n\t// allows you to deposit Chiliz network coin to the exchange tokens mapping\n\tfunction depositChiliz() payable public {\n\t\t// increasing the token mapping amount of CHZ for msg.sender by the msg.value\n\t\ttokens[CHZ][msg.sender] = tokens[CHZ][msg.sender].add(msg.value);\n\t\t// emit deposit event \n\t\temit Deposit(CHZ, msg.sender, msg.value, tokens[CHZ][msg.sender]);\n\t}\n\n\t// allows you to withdraw Chiliz network coin from the exchange tokens mapping\n\tfunction withdrawChiliz(uint256 _amount) public {\n\t\t// require that the user has enough tokens\n\t\trequire(tokens[CHZ][msg.sender] >= _amount);\n\t\t// decrease the tokens mapping on the exchange by the amount of the withdraw\n\t\ttokens[CHZ][msg.sender] = tokens[CHZ][msg.sender].sub(_amount);\n\t\t// sends network tokens back to the user\n\t\tmsg.sender.transfer(_amount);\n\t\t// deposit a withdraw event\n\t\temit Withdraw(CHZ, msg.sender, _amount, tokens[CHZ][msg.sender]);\n\t}\n\n\t// allows you to deposit ERC20 tokens into your tokens mapping\n\tfunction depositToken(address _token, uint256 _amount) public {\n\t\t// dissalow deposits of network tokens (CHZ) using this function\n\t\trequire(_token != CHZ);\n\t\t// require the correct conditions for deposit be executed, calling transfer from function from the ERC20 smart contract\n\t\trequire(Token(_token).transferFrom(msg.sender, address(this), _amount));\n\t\t// add tokens to the tokens mapping\n\t\ttokens[_token][msg.sender] = tokens[_token][msg.sender].add(_amount);\n\t\t// emit a deposit event\n\t\temit Deposit(_token, msg.sender, _amount, tokens[_token][msg.sender]);\n\t}\n\n\t// function that withdraws tokens from the exchange tokens mapping\n\tfunction withdrawToken(address _token, uint256 _amount) public {\n\t\t// require that the token is not a chiliz network token\n\t\trequire(_token != CHZ);\n\t\t// require that the user is not asking for more than they have\n\t\trequire(tokens[_token][msg.sender] >= _amount);\n\t\t// remove the amount from the tokens mapping on the exchange smart contract\n\t\ttokens[_token][msg.sender] = tokens[_token][msg.sender].sub(_amount);\n\t\t// require that the transfer function on the ERC20 token smart contract is called\n\t\trequire(Token(_token).approve(msg.sender, _amount));\n\t\t// emit a withdraw event\n\t\temit Withdraw(_token, msg.sender, _amount, tokens[_token][msg.sender]);\n\t}\n\n\t// function to see the balance of a token in our tokens mapping\n\tfunction balanceOf(address _token, address _user) public view returns (uint256) {\n\t\t// returns the tokens mapping requested with the function call input parameters\n\t\treturn tokens[_token][_user];\n\t}\n\n\t// function that puts the futures contract onto the exchange\n\tfunction createFuturesContract(\n\t\t// underlying address parameter\n\t\taddress _tokenGet, \n\t\t// underlying amount parameter\n\t\tuint256 _amountGet, \n\t\t// token price payment method address\n\t\taddress _tokenGive, \n\t\t// token price payment amount\n\t\tuint256 _amountGive, \n\t\t// quarter that the futures contract may no longer be filled\n\t\tuint256 _expirationQuarter\n\t\t) public {\n\t\t// set the order count for the id value\n\t\tfuturesCount = futuresCount.add(1);\n\t\t// create the futures contract\n\t\tfutures[futuresCount] = _futuresContract(\n\t\t\t// input for id param\n\t\t\tfuturesCount,\n\t\t\t// input for address that creates the order\n\t\t\tmsg.sender,\n\t\t\t// input for address of underlying\n\t\t\t_tokenGet,\n\t\t\t// input for amount of underlying\n\t\t\t_amountGet,\n\t\t\t// input for address of price token\n\t\t\t_tokenGive,\n\t\t\t// input for amount of price token\n\t\t\t_amountGive,\n\t\t\t// input for expiration time of the futures contract\n\t\t\t_expirationQuarter,\n\t\t\t// input for creation time of the futures contract\n\t\t\tnow\n\t\t);\n\t\t// emits a create futures event\n\t\temit CreateFuturesContract(\n\t\t\t// input for id param\n\t\t\tfuturesCount,\n\t\t\t// input for address that creates the order\n\t\t\tmsg.sender,\n\t\t\t// input for address of underlying\n\t\t\t_tokenGet,\n\t\t\t// input for amount of underlying\n\t\t\t_amountGet,\n\t\t\t// input for address of price token\n\t\t\t_tokenGive,\n\t\t\t// input for amount of price token\n\t\t\t_amountGive,\n\t\t\t// input for expiration time of the futures contract\n\t\t\t_expirationQuarter,\n\t\t\t// input for creation time of the futures contract\n\t\t\tnow\n\t\t);\n\t}\n}",
  "sourcePath": "/home/bloomdev/ETHEREUM-WORKSPACE/chiliz-options-exchange/src/contracts/Exchange.sol",
  "compiler": {
    "name": "solc",
    "version": "0.5.16+commit.9c3226ce.Emscripten.clang"
  },
  "schemaVersion": "3.2.3",
  "updatedAt": "2022-08-27T15:46:59.016Z",
  "networkType": "ethereum",
  "devdoc": {
    "methods": {}
  },
  "userdoc": {
    "methods": {}
  }
}